S0110000466561746865724D302E73726563D7
S11320005025002001220000FD210000FD210000D8
S113201000000000000000000000000000000000BC
S1132020000000000000000000000000FD2100008E
S11320300000000000000000FD210000FD21000060
S1132040FD210000FD210000FD210000FD21000014
S1132050FD210000FD210000FD210000C94D00000C
S1132060FD210000FD210000FD210000FD210000F4
S1132070FD210000FD210000FD210000FD210000E4
S1132080FD210000FD210000FD210000FD210000D4
S1132090FD2100000000000000000000FD21000000
S11320A0FD210000FD210000FD210000FD210000B4
S11320B00000000010B5064C2378002B07D1054B17
S11320C0002B02D0044800E000BF0123237010BDA0
S11320D02001002000000000249E0000084B10B5E1
S11320E0002B03D00749084800E000BF07480368F5
S11320F0002B00D110BD064B002BFBD09847F9E70D
S11321000000000024010020249E0000249E000002
S11321100000000030B585B06B46D91D0870074D2E
S113212001226868064B98470F246C4468680122B2
S11321302100044B9847207805B030BD3C010020B5
S11321407D280000B128000070B50400074D2970F7
S1132150291D074B98472000064B98472978802271
S113216012012000044B9847012070BD3C0100205F
S1132170732800005528000061280000F8B50320EA
S1132180114DA84704000420A84705002009C0B247
S11321900E4B984702000B0000208021C9050C4E0D
S11321A0B04706000F0024010F2028402043C0B28E
S11321B0084B9847084C32003B00A047074A084B9D
S11321C0A047084B9847F8BD15210000098F00006F
S11321D0815D0000858E0000198300000AD7A3707A
S11321E03D0AA73F798F000010B5024B9847024B78
S11321F0984710BD85260000B95C0000FEE700008A
S1132200F8B52A4A2A4B9A4211D01A00294B9A420D
S11322100DD2294A03339B1A9B0801339B000022E9
S1132220234822498C58845004329A42FAD1234AD2
S1132230234B9A420AD2D34321495B1803218B438F
S113224004339B18002102C29342FCD11D4AFF2192
S11322501D4B8B439360FD3990235B001B4AD15087
S11322601B4AD3780325AB4302242343D370D3788A
S11322700C27BB4308263343D370164B987B30227C
S11322809043202210439873997BB9433143997347
S11322909A7BAA4322439A730F4A536880210B43C3
S11322A053600E4B98470E4B9847FEE7249E000060
S11322B00000002020010020040000202001002054
S11322C04C05002000ED00E00020000000700041FB
S11322D00050004100480041004000419992000034
S11322E005500000F0B5C025ED0504236B60144BC8
S11322F0144A9A62C02212069A624226995D012407
S1132300A14301200143C9B29955113E995D0F279C
S1132310B9430143C9B29955802169600A49996258
S11323209A6247215A5CA2430243D2B25A541439E6
S11323305A5C0F200240013002435A54F0BDC0469B
S1132340004400410400004080000040044A116A37
S113235080235B020B431362024A034B5A8070478B
S1132360000400401E400000000C004010B5054B66
S11323709847054B9847002204490548054B984760
S113238010BDC0464D230000E5220000004000427D
S113239024050020FD26000010B5074B5A690821CA
S11323A00A435A61DA6907390A43DA61034904487E
S11323B0044B984710BDC046000400400020004173
S11323C00C0500204D27000070B5124B5620195CF7
S11323D0042291431954195C0125A9430124214382
S11323E0C9B219541B38195C0F26B1430D3E314351
S11323F0195457215E5C96435E545A5CAA432243A7
S1132400D2B25A541A5C48390A4011310A431A5458
S113241070BDC04600440041054A136A20210B43A5
S11324201362044B044A5A80044A5A807047C046D7
S113243000040040000C004017400000134100005D
S113244010B5044B984704490448054B9847054B7D
S1132450984710BD192400000014004228050020EC
S113246015280000C9230000F0B5DE4657464E4645
S11324704546E0B5C020C00580235B0143602A4B7C
S11324802A4A9A622A4A9A624C215A5C0424A24338
S11324905A545A5C0127BA4301263243D2B25A54E1
S11324A016395A5C0B34A246A2430324A1464C4677
S11324B02243D2B25A54882290468021C9008150C6
S11324C0A8251C4A5A51C022120694465A519422F5
S11324D093468150CA215C5CBC433443E4B25C54EF
S11324E0B524195D524691434A461143C9B2195560
S11324F080210901424681500F4A5A5162465A517D
S11325005A468150CB215A5CBA433243D2B25A5410
S11325101A5DBC390A4021310A431A553CBC904625
S11325209946A246AB46F0BD00440041001002406B
S1132530000002C00004004000080040044A136A7E
S113254040210B431362034A034B5A807047C04631
S11325500004004018400000000C004010B5044B7B
S1132560984704490448054B9847054B984710BDC4
S11325703D2500000018004210050020E528000059
S11325806924000010B50248024B984710BDC046AC
S113259010E000E081270000044A936920210B43E6
S11325A09361034A034B5A807047C04600040040BD
S11325B004400000000C0040F0B5C64600B5C0243D
S11325C0E40580225204A2601A4B8027FF059F6213
S11325D01949996262615820195C0422904691431A
S11325E01954195C0126B14301252943C9B2195470
S11325F01C38195C0B329143093A11431954802158
S11326008904A1609F620D4F9F62616159215C5CE6
S1132610424694435C545A5CB2432A43D2B25A545D
S11326201A5C4A390A4051310A431A5404BC904690
S1132630F0BDC04600440041000100C0000200C0DB
S1132640064BDA6920210A43DA615A6920310A43C8
S11326505A61034A034B5A807047C0460004004045
S113266006420000000C004010B5034B9847034B92
S11326709847034B984710BD41260000692C000081
S1132680B925000010B5124B9847C022D20580210D
S1132690890291600F4B8020C00598620E489862B1
S11326A0516151215A5C012082435A540B4B984783
S11326B00B4B98470B4B98470B4B98470B4B984742
S11326C00B4B98470B4B98470B4B984710BDC04694
S11326D06D31000000440041020000C06D23000081
S11326E099230000412400005D2500008525000099
S11326F0992500004D3200006926000070B50400E1
S11327000D0000280CD00800431E9841C0B243229B
S11327100449054B984729002000044B984770BD95
S11327200020F4E7349B0000BD2F00002D31000091
S1132730EFF31083036072B6BFF35F8F7047BFF38C
S11327405F8F036883F310887047000070B504003E
S11327500D0000280CD00800431E9841C0B2352259
S11327600449054B984729002000044B984770BD45
S11327700020F4E7509B0000BD2F0000A5310000AD
S113278010B5024B1860024B984710BD440100205D
S1132790A13C000010B5044B1C68044B9847010091
S11327A02000034B984710BD440100206531000010
S11327B0B53C000010B584B0140001AB1438828B12
S11327C01A800294054A5A8003911900044B9847D1
S11327D0002800D1200004B010BDC0460080FFFFD7
S11327E06D34000010B584B0140001AB1438828B32
S11327F01A800294054A5A8003911900044B9847A1
S1132800002800D1200004B010BDC0460180FFFFA5
S11328106D34000070B504000D00431E9841C0B231
S113282068220749074B984729002000064B984720
S1132830002803D1054BA361054B636170BDC046FD
S11328406C9B0000BD2F0000C9330000E527000089
S1132850B527000010B5014B984710BDF9330000AF
S11328608905890D8023DB001A400A438283100006
S113287070471430086000207047000070B50600EF
S11328800C00150000280DD00800431E9841C0B26A
S11328903E220549054B984733682A002100300041
S11328A0984770BD0020F3E7889B0000BD2F00000F
S11328B070B506000C00150000280DD00800431E5A
S11328C09841C0B247220549054B984773682A00CE
S11328D021003000984770BD0020F3E7889B00007A
S11328E0BD2F000070B504000D00002816D00800AC
S11328F0431E9841C0B2422209490A4B98472560B9
S113290029002000084B9847002806DB074B238248
S1132910074BE360074BA360002070BD0020EAE78B
S11329209C9B0000BD2F0000453900000080FFFF84
S1132930BD2900008129000030B587B004000D00D6
S1132940002814D00800431E9841C0B2BD22094992
S1132950094B98472B6803936B680493AB68019306
S1132960059303A92000054B984707B030BD00200C
S1132970ECE7C0469C9B0000BD2F0000AD3A000070
S113298070B584B004000E001500431E9841C0B217
S1132990AD220749074B98470023029301960395FC
S11329A02000083801A9044B984704B070BDC04604
S11329B09C9B0000BD2F00003929000070B584B035
S11329C004000E001500431E9841C0B2912207492D
S11329D0074B98470296002301930395200008387B
S11329E001A9044B984704B070BDC0469C9B0000ED
S11329F0BD2F000039290000F0B504000E4B5A78B1
S1132A00904217D0002300200B4F0F2626403D0094
S1132A1008E0013040B204280AD02033EA18527882
S1132A20A24206D0D95D0029F3D19642F1D100E04B
S1132A300538F0BD0020FCE7480100200020704765
S1132A4070B504000D000A4B98474201094B9B18CE
S1132A509A780023032A01D0180070BD4001054B69
S1132A60181883692900200098470300F4E7C0463A
S1132A70F929000048010020F0B585B005000F00D9
S1132A801600514B98470400002F62D14F4B42016E
S1132A9099180020C870D35C002B0ED062014B4BF8
S1132AA09B1801229A706401484B1C19E178E36970
S1132AB032002800984705B0F0BD8B78032B0CD06A
S1132AC0424B62010C329A1864011C19607800218F
S1132AD0E36998470223A370EDE73C4A0B000C25F9
S1132AE04D5761010C3152185878DB690121984720
S1132AF0002817D06201354B9B1805229A70033ABF
S1132B00DA70002D09DB6401304B1C1960788023D6
S1132B10184301212E4B9847CDE764012B4B1C1918
S1132B206078F6E76401294B1C190423A3706378C9
S1132B30002201920292002D08DB8032134301A887
S1132B40037201234372234B9847B4E70F221340C7
S1132B50F5E7012F0AD0022F1DD0032F2CD04201FC
S1132B601A4B9B1806229A70DA709CE7174B4201A5
S1132B7099180220C870D35C002B05D06201134B56
S1132B809B1805229A708EE702228A700021280081
S1132B900F4B984787E70D4B420199180420C870E2
S1132BA0D35C002B05D06201084B9B1801229A705C
S1132BB079E702238B707EE74201044B9B180022C5
S1132BC09A700532DA706EE7F92900004801002096
S1132BD08D490000614B0000F0B5C64600B5040005
S1132BE01D4B9847060045010C351C4B5D19290007
S1132BF020001B4B9847C0B208280AD001212000AE
S1132C00184DA847802020430121A84704BC9046C2
S1132C10F0BD00212000134B984698478027274396
S1132C2000213800C04772010C4B9B1801229A7096
S1132C305B692900200098470028E7D17601074BFB
S1132C409E190523B37001212000064CA0470121E1
S1132C503800A047DAE7C046F929000048010020FF
S1132C60F14A00008D49000010B5104B9847002828
S1132C701BDB0F4C8022002120000E4B98472300C1
S1132C808034FF210C4A59705A619A61DA61203309
S1132C90A342F8D109490020094CA0470949012061
S1132CA0A04709490220A047002010BD7D43000031
S1132CB048010020F39200003D2A0000D92B0000B7
S1132CC0994D0000412A0000792A000010B5014BFB
S1132CD0984710BD754D000010B5014B984710BDC5
S1132CE04944000010B5014B984710BD99440000B9
S1132CF010B5014B984710BDA9440000F8B5050074
S1132D000E0017000F4B9847002814DAFF200D4BD4
S1132D109847041E12DB3A00310028000A4B9847FA
S1132D20002807DB094A640113195D7003231E4060
S1132D30A6540020F8BD14204042FBE71520404271
S1132D40F8E7C046F9290000B94400004801002012
S1132D5010B582B200210020014B984710BDC04637
S1132D60FD2C000070B50500064B9847041E07DBD8
S1132D702800054B98476401044B1C19FF2363701A
S1132D8070BDC046F9290000E54500004801002057
S1132D9070B504000E4B9847051E15DB43010D4A20
S1132DA09B5C5A425341013341010A4A52189370C1
S1132DB02000094B9847002800DB70BD6D01054BCE
S1132DC05D190023AB70F8E712204042F5E7C046D6
S1132DD0F929000048010020B1460000F0B5D646AC
S1132DE04F464646C0B586B00400077A3800404BCB
S1132DF098470500667A63689846002800DA71E00F
S1132E0004A83C4B98476A013B4B9B189A781723BC
S1132E106B441A701B78012B10D004A8374B9847C9
S1132E2017236B441B78DBB2052B5ED0062B23D013
S1132E300120002B3CD11320404239E02E4B99460F
S1132E406B019A464B46534403229A7004A82B4BB9
S1132E5098474B465246D35C002B10D0237A721EFF
S1132E609641F6B222680192424602927FB2002F46
S1132E7017DB0F22134016E01020404218E06B01CC
S1132E801D4AD218D17C0902937C5B189BB2002B9B
S1132E9014D10423937000220126237A216801911E
S1132EA002928022134301A803724672144B98477E
S1132EB006B01CBC90469946A246F0BD42469A42D2
S1132EC000D91A006D010C494D19297B7F2905D8B9
S1132ED0237A2168019102920026CAE79A42B641F8
S1132EE07642DAE712204042E2E70220E0E7C046F9
S1132EF0F929000031270000480100203F27000085
S1132F00614B000070B50400002905D0012921D0CF
S1132F100221134B984770BD124B9847051E1CDBCA
S1132F20022120000E4B98470028F4D000212000F5
S1132F300B4B98470028EEDB6D010B4B5D19012309
S1132F40AB700233EB70EB69002203212000984739
S1132F500020E0E7024B9847DDE712204042DAE721
S1132F608D490000F92900004801002070B50D00CA
S1132F7014000F4B98470300221E08D0002B05DBDA
S1132F80012D0BD0002D04D0022D0CD070BD094AA8
S1132F90F4E74001084B18184261F7E74001064B7B
S1132FA018188261F2E74001034B1818C261EDE77B
S1132FB0F92900003D2A000048010020002800D122
S1132FC000BE70470368002B0AD08B420AD01B68EE
S1132FD0002B03D09942FAD1012000E00020704771
S1132FE00020FCE70120FAE770B505000E00046834
S1132FF00A4B984701235840C0B259220849094B4B
S113300098472B68002B03D12E60336005E01C0029
S11330102368002BFBD12660336070BDC52F0000F0
S1133020B89B0000BD2F00000300064A1268002A66
S113303004D0044A1068C318136070470249014A57
S11330401160F6E7C80100205025002000207047D9
S113305070B504000D00314BC01843425841C0B252
S11330609E222F492F4B9847637EDB09FCD123789E
S11330709B0750D42378012213432370637EDB091A
S1133080FCD1EA00521B9200274B9B189A7862707D
S1133090DA78A2701A79E2701A7C2275DA8AA2842C
S11330A01A8BE284997E2A22A154DA88637EDB0992
S11330B0FCD1A280EB005B1B9B001B4AD318DA688F
S11330C0637EDB09FCD12261EB005B1B9B00164A8B
S11330D0D3181A7A637EDB09FCD12272EB005B1BE6
S11330E09B00114AD3185A8A637EDB09FCD1A28360
S11330F0EB005B1B9B000C4AD3189A8A637EDB09A6
S1133100FCD12284EB005D1BAD00074B5D196B788D
S11331102370002070BD11204042FBE700C0FFBDBA
S1133120F49B0000BD2F0000D89B000070B5050083
S11331300C00431E9841C0B2C8220649064B98476A
S11331402C602000054B984701002000044B984751
S113315070BDC046F49B0000BD2F00004D30000040
S113316051300000FA235B015843704710B5084BF7
S11331705A685A60074B9847074B98470820074CF2
S1133180A047074B984709204042A04710BDC046BE
S1133190004000412D320000BD3B0000AD31000075
S11331A01D3C00000160002070470000C3070BD5E0
S11331B080225200184B9A601A005378DB09FCD124
S11331C083225202144B5A60830709D5134A124BC7
S11331D09A601A005378DB09FCD1114A0E4B5A60ED
S11331E043070AD5812252000B4B9A601A00537888
S11331F0DB09FCD10B4A084B5A6003070AD50422A9
S1133200FF32054B9A601A005378DB09FCD1064A59
S1133210014B5A607047C046000C00400108000092
S1133220010601000207010003050100064B1A7A9A
S1133230D2B21A725A7AD2B25A729A7AD2B29A72B2
S1133240DA7AD2B2DA72704700040040204A937AE4
S1133250DB09FCD11E4A937ADB09FCD11C4B1B8889
S11332609B070BD51A4A937ADB09FCD1184A1388B9
S113327002218B431380937ADB09FCD1144A937A9D
S1133280DB09FCD1124A138801210B431380937A82
S1133290DB09FCD10E4A937ADB09FCD10C4B0D4AB5
S11332A01A808022D2015A801A00937ADB09FCD159
S11332B00022074B1A731A00937ADB09FCD1044AE3
S11332C0138802218B430B43138000207047C046B0
S11332D000140040080A000010B5084B9C466044E6
S11332E0800AC0B2032807D0054A06490020064BCD
S11332F098470120404210BD0020FCE700F8FFBDC4
S1133300A1030000389C0000BD2F000070B505002B
S11333100C000800294B9847C0B20122E3691A4205
S1133320FCD10322E3691A42FCD123689B0741D4F0
S11333300122E3691A42FCD123680122134323606A
S1133340E3691A42FCD143001B18DB001C4AD31862
S113335059680322E3691A42FCD1216043001B1817
S1133360DB00174AD3189E680422E3691A42FCD191
S1133370666043001B18DB00114AD318DB68E36066
S11333808901890FA98101238B4289414942042281
S1133390E3691A42FCD1636A0A4A1A408B03134355
S11333A0636243001818C000054B1818438AEB8168
S11333B0002070BD11204042FBE7C046D932000016
S11333C00C9C0000FFBFFFFF70B504000D00431EFE
S11333D09841C0B2A222D2000449054B9847256106
S11333E029002000034B984770BDC046389C00005C
S11333F0BD2F00000D33000070B50400164D431EB0
S11334009841C0B2154A2900154EB04724692000DE
S1133410431E9841C0B2134A2900B0470322E3690E
S11334201A42FCD123680222134323600E4902325C
S113343003201025E3691A42FCD1638B1B09034066
S1133440012B07D001390029F4DCE3691A42FCD1CD
S11334506583EFE7002070BD389C00002D05000057
S1133460BD2F0000FD050000FFFF0000F0B5DE46A3
S11334704F464646C0B582B005008846046906003A
S1133480731E9E41F3B2B84FB84A39000193180035
S1133490B74EB0472869431E9841C0B2B54A3900B7
S11334A0B0474046431E9841C0B2B34A3900B047C2
S11334B06B88DA0500D5FCE142465388802252002D
S11334C01343424653802A004146C1C9C1C22F69F1
S11334D03A689146A94AA4490198A54B98476B6854
S11334E0012B59D00422FB691A42FCD17B68A44AFF
S11334F013407B602B885A055BD56A88D20704D5B4
S11335006A888021C9000A436A805B009D4919408A
S11335100422FB691A42FCD17B6A8022D2011A4040
S113352080231B02134319430422FB691A42FCD172
S1133530796229690B7EDBB2934A0320184204D1D5
S11335400B7EDBB2013A002AF8D13E680421FA6905
S11335501142FCD17A8B92B2D90700D49FE0930731
S11335603DD501233B766B88802149010B436B8059
S11335706B8886490B406B8001200300134058423E
S1133580584105386B88814A13406B8002B01CBCDB
S113359090469946A346F0BD4B461B01A2D5042292
S11335A0FB691A42FCD17A688023DB0213437B60F7
S11335B0A0E769885B00FF200340FE3808401843F9
S11335C00422FB691A42FCD1796A8023DB01194089
S11335D001430422FB691A42FCD17962A9E753072B
S11335E01BD46B885B0535D52988C909062008409A
S11335F00422FB691A42FCD1796A8023DB01194059
S1133600F123194301430422FB691A42FCD1796274
S11336106B885F4A13406B8066E06B68002B04DDA7
S11336206B888022520113436B806B881BB2002B82
S113363006DB6B88554A13406B8002204042A1E7A9
S11336400423FA691342FCD17A68C0239B02134312
S11336507B60EEE76B68002B12D16B881BB2002BEA
S113366004DB6B88494A13406B803DE00422FB690C
S11336701A42FCD17A68C0239B0213437B60F0E7B3
S1133680AB6819780422FB691A42FCD12823F95447
S1133690AB680133AB606B68013B6B6024E09B0754
S11336A022D56B68002B33D0520731D43601F60F84
S11336B0013B6B60002B00D0FEE0002E00D101E145
S11336C06B881BB2002B19DB6B88304A13406B806C
S11336D0A9684B1CAB600422FB691A42FCD1282365
S11336E0FB5C0B7002233B76002080235B009B462F
S11336F003210422FF3B99460226B0E00422FB6921
S11337001A42FCD17A68C0239B0213437B60DBE737
S113371002233B760220404234E70422E3691A4242
S1133720FCD16268C0239B0213436360ADE03A425C
S113373030D16B885B0548D52888C0090627074027
S1133740E3691A42FCD1606A8023DB011840F1234B
S113375018433843E3691A42FCD160626B880C4811
S113376003406B8000207AE0389C0000CA0500000A
S1133770BD2F0000CB050000CC0500009F05000014
S1133780FFFFFBFFFE070000FFFF0000FFFEFFFF3F
S1133790FFFBFFFF6B68002B04DD6B88802040017A
S11337A003436B806B881BB2002B05DB6B8863487B
S11337B003406B80FF3052E0E3691A42FCD1606839
S11337C0C0239B0203436360F0E76B68002B12D1B4
S11337D06B881BB2002B05DB6B88584803406B8059
S11337E000203CE0E3691A42FCD16068C0239B02DC
S11337F003436360F0E7AB681878E3691A42FCD1CD
S11338002823E054AB680133AB606B68013B6B6009
S1133810002024E000201E4221D06B68002B44D0FD
S11338203A4242D16046C00E4F463840013B6B607D
S1133830002B72D1002874D06B881BB2002B2BDBB9
S11338406B883E4803406B80A868431CAB60E36907
S11338501A42FCD12823E35C0370267600206B888F
S11338605F463B4200D191E62F693B7EDBB2344890
S1133870194235D13B7EDBB201380028F8D14346EA
S11338805B881BB2002B00DA47E76B882B4A134096
S11338906B800520404279E6E3691A42FCD16068F6
S11338A0C0239B0203436360CAE72676022040429A
S11338B0D5E70620404269E6012B00D008E7002E38
S11338C000D105E70422FB691A42FCD17A688023FF
S11338D0DB0213437B606B68002B00D1F0E6F7E654
S11338E020688446E0690242FCD1678BBFB2484637
S11338F018428FD03E4200D119E720766B88802091
S1133900400103436B806B880C4803406B804B463B
S11339101F40784278410538A1E7012B94D1002853
S113392092D0E3691A42FCD163688020C002034349
S113393063606B68002B00D17EE785E7FFFEFFFF25
S1133940FFFF000070B506000C004D4BCB189B0A1E
S1133950DBB2042B08D0002800D180E0002900D07D
S113396085E00025002006E0002850D000294BD037
S1133970444D18350120444A4449454B9847002D8D
S113398067D00122E3691A42FCD10322E3691A4297
S1133990FCD123689B075FD40122E3691A42FCD15E
S11339A02368012213432360E3691A42FCD1346083
S11339B01C232A681340082B2CD02000431E984156
S11339C0C0B2344A3149324B984733492B681940C5
S11339D00322E3691A42FCD12160304A6B681A4021
S11339E080239B02134363602B7B23736A7B302306
S11339F0E25407236A6813405A1E9341013333711A
S1133A00EB89F380002070BD1E4D1835AAE71D4DCB
S1133A101835A7E72000431E9841C0B2204A1B492D
S1133A201B4B98471C492B6819400322E3691A422F
S1133A30FCD121601B4A6B681A401B4B1343636023
S1133A40AB6863626A7B3023E254E369002BFCD1E8
S1133A50CFE70D204042D6E711204042D3E70A4A7F
S1133A600A4900200A4B98470D204042CBE7064AFA
S1133A7006490120064B98470D204042C3E7C04643
S1133A8000F8FFBD0C9C000015090000389C0000E4
S1133A90BD2F0000DF080000FCFEFFFFBF1DFDFF7F
S1133AA0F3080000BFDDFDFF40020200F0B5DE4672
S1133AB057464E464546E0B583B081460E0004683D
S1133AC00B6898464D6803790193002815D02000AF
S1133AD0431E9841C0B2364A3649374B9847E3698A
S1133AE05B073FD10323E0691840FCD123689B079F
S1133AF03BD5020001239C4609E00020EBE7013599
S1133B0001325BB2002B16DBB368834227D9237ED4
S1133B10DBB2042119422BD0A76A002DF0D02F70FC
S1133B2001990129EBD93F0A6F700235E8E70121B9
S1133B308B46D84437E001235B4263838133237689
S1133B40132040420322237E1342FCD00323237616
S1133B5003B03CBC90469946A246AB46F0BD9342A6
S1133B60D5D8EFE704204042F2E714204042EFE7C3
S1133B709042C6D867461F42C3D04F46FF88BA4614
S1133B804746002F0FD03F78BA4601990129CED974
S1133B9047467F783F02BB46574659460F43BA46CD
S1133BA002218B46D84401305746A762A9E7C04694
S1133BB0710A0000389C0000BD2F000010B5144BA2
S1133BC0144A9A82196A1A6A13480840920F920793
S1133BD00224224302431A629A6922439A61C90267
S1133BE0C90E197719000222CB681A42FCD0084A80
S1133BF0938A80210B43938211000822CB681A42D6
S1133C00FCD0034A136A80210B43136210BDC046E3
S1133C10000800400E0300000000FF0F8622D201BE
S1133C201A4B5A8002221A4B9A8419000E32CB681E
S1133C301A42FCD0174A164BDA62174B1B689B0ECC
S1133C403F2B1AD09B02802292001343104A9362A6
S1133C50124B9384938C5B0712D51100D022CB684E
S1133C601340D02BFBD1094A5378DB09FCD1084A15
S1133C70936902218B4393617047FC23DB01E5E7E1
S1133C8003491022CB681A42FCD0ECE7000C004038
S1133C9000080040B8050104246080000605000007
S1133CA0024B034A5A6005221A60704710E000E094
S1133CB0FFFFFF0070B50B0E5E1EF6B2002B13D093
S1133CC034000E4A0E4D8020400255609560136802
S1133CD00342FCD0013CE4B2FF2CF6D13306F61AC1
S1133CE0084B9C4661447118044B59609960190053
S1133CF0802252020B681342FCD070BD10E000E039
S1133D00FFFFFF00010000FF0020704770B5837CB7
S1133D100F221340C17C083A0A40012A0BD05A01F1
S1133D2019498C4662441021D1715B01174A9446AB
S1133D306344197070BD4A060ED5C27C40218A4383
S1133D40C2745A01124CA446624480258224640041
S1133D5015550624FF341155C27C08218A43C274C8
S1133D600C495A018C180025A572A5761300064C3F
S1133D70A44663446F24DC71044B9C466244147073
S1133D80807C8B6E9847D5E7005100410851004173
S1133D9000500041CC01002010B520228A40D2B24C
S1133DA0817C0F230B405B0105498C4663441A70E8
S1133DB08268807C034B1B6F0121984710BDC0466D
S1133DC008510041CC01002010B5837CFF2B02D0A8
S1133DD0C27C520600D410BDC27C4024A243C274EB
S1133DE082680248046F1800A047F4E7CC01002061
S1133DF030B583B0837C01AC2525257025356570ED
S1133E00FF2B1BD0C47C640618D50F242340002943
S1133E1016D05C010E4DAC4664448025257101AC7E
S1133E20645C59010A4DAC466144CC715B0109499B
S1133E308C4663441C701100074B984703B030BD97
S1133E405C01034DAC46644440256571E7E7C04618
S1133E500051004108510041C93D000070B582B0D5
S1133E60837C0F22134001AA042414700434547078
S1133E705D01002931D01A0008325201324C145D20
S1133E806406640F0A015219304DAA18957AEDB2EE
S1133E90022C2AD0AC0741D5C57C947A0226B443BF
S1133EA0947201AA545C5A01294EB4466244D471F6
S1133EB05B01284A944663441C7007232B40012B62
S1133EC03FD1C37C5B063CD5C37CDB09994238D027
S1133ED000221900204B984733E01A00083252019F
S1133EE0194C145D07221440CCE7EC07D2D5947A20
S1133EF00125AC43947201AA545C5A01144DAC469A
S1133F006244D4715B01134A944663441C704B1E93
S1133F109941C9B20422104B984712E05A00521832
S1133F2012010A4882180020907201AA515C5A01B9
S1133F30074884466244D1715B01064A944663444F
S1133F40197002B070BDC04600500041CC01002081
S1133F500051004108510041F13D0000F0B5C64652
S1133F6000B50C4D2C0074342935FF350A4B9846A6
S1133F70FF27002603212000C047A774E6741434E9
S1133F80AC42F7D1602200210248044B984704BC9C
S1133F909046F0BDCC010020C93D0000F392000022
S1133FA0F0B5C64600B504000E00837C0F251D4005
S1133FB0002900D1AAE06A015A4B9B185869800471
S1133FC0800C238A584A934200D19AE0013B9AB26A
S1133FD0E37C07271F40002E05D06B0153498C4614
S1133FE063440221D971A368C118A160636899422E
S1133FF04AD25B1A9BB2E27C920635D5228A101C07
S113400092B29A4200D9181C83B2984623689C46FF
S113401061444246E068464B9847E1686A01414B77
S11340209B1819616A013F4B9B185A6941468904E0
S1134030890C920B92030A435A615A693D490A401A
S11340405A61002E07D1012F59D04A226B013A49F7
S11340508C4663441A706D01344B9C46654480233E
S11340606B7104BC9046F0BD1A1C80208001834211
S113407001D9324B1A8893B29846236859186A01B9
S1134080284B9B181961CDE7E37CDB060FD5E37C55
S113409010229343E3746A01224B9B185A69920BD2
S11340A092035A615A6923490A405A61C9E7012FA8
S11340B00ED06D01224B9C4665444A232B70218A05
S11340C0024091420BD0002120001E4B9847C8E7C4
S11340D06D011B4B9C4665444B232B70EFE7E37C3F
S11340E040229343E374A07C0E4BDB6EA168984797
S11340F00028B6D1E37C40221343E374E3E74E2265
S1134100A4E7E77C07231F40074A66E7038A064AB9
S11341100020934200D059E7E37C07271F4000208A
S1134120014A60E7CC010020FF0300000051004178
S1134130E1920000FF3F00F009510041549C00004F
S113414008510041C93D0000F8B5DE4657464E46C9
S11341504546E0B504008846837C0F251D400029B0
S113416057D06A017D4B9B185A681201920C9246F3
S11341705F68BF04BF0CBB46068A794B9E4200D1E0
S1134180CDE0013EB6B25F463740E37C07221A40D9
S113419091464346002B05D06B01724A9446634412
S11341A00122DA71E37C9B060FD56368002B39D0BA
S11341B0A0681B1A9BB2226894466044E1681A0006
S11341C0BB4200D93A00684B98476368002B29D05A
S11341D04246002A42D0228ABA423FD9E37C1022C6
S11341E09343E374A3685B44A3604B46012B00D163
S11341F087E06B015D4A9446634425221A70002DC2
S113420002D1564BE2681A6000212000584B9847AF
S113421059E0068A524B9E4200D18EE000239B4611
S11342209A46AEE7E37CDB0600D47FE0E37C102211
S1134230934320221343E374484A6B01E168995085
S1134240218AD3185A68890409094A4802400A4352
S11342505A605A68920B92035A6022E0A268524450
S1134260A2609342C1D99B1A9BB2E17C890630D5E6
S1134270228A111C92B29A4200D9191C8BB2E068AE
S11342806A01364950506A01344989184A689B04C6
S11342901B093848024013434B604B689B0B9B033C
S11342A04B604346002B08D125224B46012B2FD0CF
S11342B06B0131498C4663441A706D01294B9C464D
S11342C0654440232B713CBC90469946A246AB46BC
S11342D0F8BD218A8B420AD9802189018B420DD8ED
S11342E0B34321688A1869011C480A50CBE78B4202
S11342F0F7D2E17C20200143E174F2E780239B01A3
S1134300EFE76B01194A944663442D221A7076E74D
S11343106A01124B9B1800229A762D32C8E7BF051A
S1134320BF0DC37C07221A40914635E74346002B54
S11343300CD1A3685344A36057E7C37C07221A40F7
S11343409146002700239B469A462BE7238ABB42CB
S113435000D943E7A3685344A36046E7CC01002097
S1134360FF03000000510041E192000008510041A8
S1134370C93D0000FF3F00F00951004110B52D492F
S113438001228B781342FCD12A4903228B781342F1
S1134390FCD1284B1B789B0748D4264901228B78F3
S11343A01342FCD1234A137801210B4313701100EB
S11343B001228B781342FCD11F4B204A1A665A669D
S11343C09A66DA661A671E4B98471E4B1B685A0B8F
S11343D01F210A40980C01409B015B0F1F2A1FD02C
S11343E01F291FD0072B1FD092010A431B0313431D
S11343F0104A1385D37803210B43D370D3780C214F
S11344000B43D370110003228B781342FCD1094B68
S113441004221A70084A5A6201221A81002010BD2F
S11344201A3ADDE70239DDE7023BDDE711204042BD
S1134430F5E7C04600500041CC010020093D0000D2
S11344405D3F000024608000104B9B789B071AD1CD
S11344500E4903228B781342FCD10C4B1B78DBB240
S11344609A0708D402201843084903228B78134280
S1134470FCD1064B18708022054B1A60054A034B89
S11344801A830020704711204042FBE7005000418E
S113449000E100E08D020000024A138901218B43F0
S11344A0138170470050004180231843014B9872D8
S11344B07047C04600500041F0B50F24044043B299
S11344C09C46002C54D02500002B07DB0323194005
S11344D02700022C50D91220404225E0A51CF5E704
S11344E06346002B21DB7B00DB199B003B4C1B59F3
S11344F0002B66D17B00DF19BF00384BFF58384BC7
S1134500AE007419A4001C19803427606033741938
S1134510A4001C19A2842734013121707519AD003F
S11345205B19263318700020F0BD7B00DB199B005B
S11345302A4CE3185B68002B06D17B00DF19BF000F
S1134540264BDF197F68DAE77B00DB199B00234CDD
S1134550E3185B899342F0DA13204042E4E7142025
S11345604042E1E714204042DEE713204042DBE70B
S11345700323194000250027AB005B199E00184B4C
S11345809B1986331B78FF2BE9D10029A8D1002C75
S113459004D06346002B01DB0234E4B2A3001B19F0
S11345A09B000F4CE41886342378FF2BDAD17B0070
S11345B0DB199B00094C1B59002BD6D06346002BFA
S11345C0B3DB7B00DB199B00044CE3181B8993428B
S11345D000DB8FE713204042A6E7C046589C00004A
S11345E0CC010020F8B505000F24044047B2002C8C
S11345F010D02000002F02DB022C02D9F8BDA01C31
S1134600FAE706000130830018188000254B603358
S1134610181802E0234874300026B3009B199A004E
S1134620204B9B1886331B78FF2BE7D0F90F03220E
S11346301D4B9847B3009B199A001A4B9B18803363
S1134640DA7907231340012B1BD0002F1FDB6D01E8
S1134650164B9C46654480225200AB5C07218B4379
S1134660AB54104B6033B1008A1992009A18273268
S1134670002010708E19B6009B192633FF221A7081
S1134680BCE708356D010022084BEA54E9E76401F0
S1134690064B9C46644480225200A35C70218B43E9
S11346A0A354DEE7CC010020F13D0000005000419E
S11346B0F0B5C64600B50F22024040B2002A00D130
S11346C092E0130000280BDB110008325201AA4CBF
S11346D0155DEDB2022900D88DE012204042E5E0DC
S11346E0931CF1E776322A4275D1A34A904644449A
S11346F0112080225200A0549A00D21895009F4A9B
S113470060325219928C95039D48054080208000A8
S1134710824200D9CDE00138FF38824200D913E14A
S1134720802A00D900E1402A00D915E1202A00D9C5
S113473002E1102A00D917E1F83890428041404242
S1134740060735437D609504AD0CB9E070222A421A
S113475044D18A489E00F218920082188032D2799D
S11347605207520E1543844A9446644480225200F0
S1134770A5546030F618B6008019808C8504AD0C01
S11347800132FF320723904214D8013AFF3A013B29
S113479090420FD8013B80280CD8013B402809D80F
S11347A0013B202806D8013B102803D8F83A82425E
S11347B0924153421B072B437B61802282235B007F
S11347C0E25449016D4B591800238B7600206DE0AB
S11347D0122040426AE01420404267E01420404224
S11347E064E01420404261E080235B00624AD55CAF
S11347F0EDB2002100239A00D21894005F4A1219E6
S1134800863212789446FF2AE2D04C015B4A17198B
S11348109E00F618B60092198032D67907223240EB
S1134820012A00D15EE7002890DB6A07D9D15348FA
S11348309E00F218920082188032D2795207520FE9
S113484015434D4A9446644480225200A554603076
S1134850F618B6008019858CAB034948184001321C
S1134860FF320723954214D8013AFF3A013B95429F
S11348700FD8013B802D0CD8013B402D09D8013BBA
S1134880202D06D8013B102D03D8F83AAA429241B4
S113489053421B0703437B6040220623FF33E25449
S11348A04901364B591800238B72002004BC9046F2
S11348B0F0BDE020C00505437D609504AD0C0720E4
S11348C00007284378610625FF3540266655822770
S11348D07F008020E05529484901411800248C724A
S11348E08C760F3461460C409900C9188900411830
S11348F08031096863011950C01841689204140991
S1134900204A0A40224342604268920B920342606A
S1134910194A9A18B021D15556551B4A94466344F6
S113492010221A700020C1E7A020C00505437D6055
S11349309504AD0C0520C3E7C020800505437D60C8
S11349409504AD0C0320BBE7C020C00505437D6082
S11349509504AD0C0620B3E78020C00505437D60B7
S11349609504AD0C0420ABE78020800505437D60F1
S11349709504AD0C0220A3E700500041CC010020B7
S113498000C0FF0FFF3F00F009510041F0B50F23B5
S1134990034040B2C40F002B09D01A00002804DBE6
S11349A0022B05D91220404219E09A1CF8E7002294
S11349B0012915D0002936D093009B189B00474A43
S11349C0D218863212780F2313405B01444A94466E
S11349D0634498791023A3401840431E9841F0BDC6
S11349E01025A540EDB23D49900083189B00CB18DB
S11349F086331E780F2333405E01394FBC4666442C
S1134A0075712025A540ECB25B01364DAC4663447C
S1134A101C70821892008A188032D37908210B43C3
S1134A20D3710020DBE793009B1899002B4B5B1894
S1134A3086331B780F210B405D012B498C4665445E
S1134A40832149006E5CF639A14000200E42C6D095
S1134A50C9B20530FF3029542021A140C8B25B01FE
S1134A60224EB446634418700823FF33EB5C0B42B8
S1134A7009D00823FF33E854073BFF3BA340DBB2D4
S1134A80822149006B5493009B189900134B5B18C7
S1134A908033D97907230B40012B0BD093009A184C
S1134AA092000E4B9B188033DA7908218A43DA711D
S1134AB0002094E70633FF33E95CD63B002019421B
S1134AC000D08CE793009A189200044B9B18803313
S1134AD0DA7908218A43DA7181E7C046CC010020E3
S1134AE0005100410951004100500041085100416A
S1134AF070B50D000F2318404401164B1B1919689B
S1134B005B689B049E0C02281AD8002D1BD0124B04
S1134B109C46644480235B00E35C112B16D108237C
S1134B20FF33E35C0020DB0600D470BD08222800BC
S1134B300A4B984710220823FF33E2543000F4E76D
S1134B4012204042F1E712204042EEE71320404297
S1134B50EBE7C046CC01002000500041E192000088
S1134B60F0B5DE4657464E464546E0B585B080462C
S1134B70067A0F23334076B2002B00D1D3E018001D
S1134B80002E39DB0400734A6032411C8D006D181D
S1134B90AD0055198100091889005218918C6E4A8C
S1134BA091422BD04F1EBFB2424652681740022B8F
S1134BB000D9A4E043461B686848834220D998186A
S1134BC00190674884460198604519D89B0717D11E
S1134BD0002E32DB914200D9AFE0002F30D0A30089
S1134BE01B199A005B4B9B1880331B68002B00D168
S1134BF08BE0002399460FE0981CC3E70F00D3E72E
S1134C00A3001B199A00534B9B1880331B68002B7D
S1134C1000D177E001239946A3001B199A004D4B5C
S1134C209B188033DB7902201B070CD505B03CBCF4
S1134C3090469946A246AB46F0BD00239946EBE761
S1134C4000239946E8E703A8464B9847A3001B199D
S1134C509A00404B9B188033DB795B0644D4A30055
S1134C601B199B003B4A93469B4480235B449A4612
S1134C70DB79402213435246D37103A83A4B984739
S1134C805B46424612685A67424652689A67002356
S1134C905A46D367F20FD2015346D9797F230B408A
S1134CA0494649011343202293430B435246D3718F
S1134CB043465B7A0022002B02D07A427A41D2B278
S1134CC0A3001C19A400234B1B1980331201DF79A4
S1134CD010218F431743DF71002E0ADB00212800C7
S1134CE0224B98470020A1E703A81F4B98470120B7
S1134CF09CE7002128001E4B9847002096E71220CD
S1134D00404293E71320404290E7122040428DE74F
S1134D10132040428AE743465A689705BF0D0D4D5C
S1134D207435002446E70B4A6032918C0A4A91425A
S1134D30F1D0084D7435002434E7A3001B199A0000
S1134D40044B9B1880331B68002BE1D00123994648
S1134D5062E7C046CC010020FF030000FFFFFF1FF5
S1134D60FF7F0020312700003F2700004941000059
S1134D70A13F00000B1E06D0012806D0002801D157
S1134D80034A13667047034BF6E7014A5366F9E793
S1134D90CC010020093D00000B1E08D0002808D0DB
S1134DA0012809D0022806D1054A136703E0054B00
S1134DB0F4E7034A93667047014AD366FBE7C046AB
S1134DC0CC010020093D0000F8B5824B1E8CB6B220
S1134DD0002E03D0804C74340025B9E0998B1B8BD2
S1134DE00B405A0717D49A051CD41A063ED47022D5
S1134DF01A4244D11A075ED4DB07EBD5754B774AC8
S1134E009A839A82923AFF3A1A83734B5B6E00211B
S1134E100420984705E004226E4B9A836E4B1B6E68
S1134E209847F8BD6B4B6D4A9A839A82923AFF3A3F
S1134E301A83694B1B891B071B0F032B0CD0664B72
S1134E401B8D1B071B0F00216F3A032B05D0624BF0
S1134E505B6E03209847E4E7002252015E4B9B18E7
S1134E6019894904490D00221A81F0E78022594B1F
S1134E709A83594B5B6E002105209847D1E7554B27
S1134E809A839A82554A1A83554B9B8C9B060CD461
S1134E905349323AFF3ACB681340D02BFBD14E4BE7
S1134EA05B6E002102209847BBE74D491022CB6876
S1134EB01A42FCD0F3E7474B002180225200995458
S1134EC0F83A9A8368329A82444A1A83454B98473F
S1134ED0414B5B6E002101209847A2E7CB0607D423
S1134EE04B0608D48B062ED500213F4B98472AE069
S1134EF03E4B984727E001213B4B984723E04B0664
S1134F000ED40B0710D48B0712D407231A40012A9E
S1134F1019D14B0710D4CB0615D5344B984712E062
S1134F200121314B98470EE00121314B98470AE0AB
S1134F300121304B984706E000212D4B984702E0B1
S1134F400021294B984701351434092D00D168E715
S1134F502000A17CFF29F6D00F230B4001219940AA
S1134F600E42F0D05901244FBC466144C9795B011B
S1134F70224FBC4663441B781940E4D0AB005A1955
S1134F809200154B9C4662447032D27D47231340F5
S1134F90012BA3D053B2002BB1DB8B06D0D44B072B
S1134FA00CD4CB070ED407231A40012ACBD10B070C
S1134FB00CD4CB06C7D50D4B9847C4E700210C4B46
S1134FC09847C0E701210E4B9847BCE70121084BE5
S1134FD09847B8E700500041CC01002001020000CE
S1134FE0000800405D3F0000993D00000D3D0000B9
S1134FF05D3E0000A13F0000005100410951004105
S113500049410000F0B5C64600B588B0194B984731
S11350104A211948194B9847194B9846194F1A4E6B
S11350201FE080229202C023DB055A61B847B047D3
S1135030020016496846164B9847114B98470028BA
S11350400CD06B461878002806D06C46114DA84742
S1135050013420780028FAD10F4B984764200F4B75
S11350609847C0470028DCD080229202C023DB0589
S11350709A61DBE7E92100002805002049210000AE
S1135080755D00007D210000E97000007C9C00003B
S113509005930000495D0000095D000095270000AC
S11350A0002380228354013283547047F0B583B0C7
S11350B006000C0015000A7853069B0F012B00D044
S11350C06CE0097963791B020B433B4909789942E7
S11350D003D039494978994263D152B2002A0EDB90
S11350E0A779E3791B021F43344B98476378202B3D
S11350F018D0222B3CD00D20404203B0F0BD012D2E
S113510052D06378212B51D1A279E3791B02134346
S1135110072B4ED100230722274908313000284CA1
S1135120A047EAE7072F34D1002D1AD00722010047
S11351306846244B9847204B1B69002B05D06846D2
S1135140984703000020002BD7D01B4A1300009976
S113515091606A4692889A816A4692799A7300208D
S1135160CBE70023072201003000154CA047C4E719
S11351700023002200210020114DA8470E4B5B693B
S1135180002B09D0A278E078000210439847002051
S1135190B3E701204042B0E70020AEE70A204042D6
S11351A0ABE70A204042A8E70020A6E70D204042D2
S11351B0A3E701204042A0E7B4030020055B000000
S11351C0B5550000E1920000F0B5DE4657464E4664
S11351D04546E0B583B01600012968D000290BD0FC
S11351E0022900D193E00D20404203B03CBC90461C
S11351F09946A246AB46F0BD8368984610680028DD
S113520000D187E00193012343449B46474F484B19
S113521099468278437908218B43022B02D00A20D5
S11352204042E2E701998A460B789A4275D0FF2BF7
S113523076D10A70052271683E4B9847041E1ED130
S113524030680378C018042271683A4B9847019B70
S11352505B4527D0019B013301930028D9D10A2053
S11352604042C2E753469D702800314B9847346052
S1135270207820187168304B9847041EE0D0A57838
S113528063791B022279D21892B2E1782800B847D8
S1135290002848D16BB2002BE4DB43461D71280083
S11352A0C847E4E70122254B5A7100209DE7846832
S11352B0002A08D013685B7908229343022B02D09A
S11352C00A20404291E72378FF2B08D0FF23237064
S11352D0A078FF2803D01A4B9847FF23A370637864
S11352E0FF2B08D0FF236370E078FF2803D0144B12
S11352F09847FF23E3702079FF2803D0104B984789
S1135300FF23237100220D4B5A7100206DE71B20EF
S113531040426AE70A20404267E71220404264E7BD
S11353201C20404261E7142040425EE7FD2C00004F
S1135330912D0000215B0000575B0000B4030020A6
S1135340652D000010B50A4B984701280CD8094870
S1135350094BC36100621830084B98470849012083
S1135360084B9847002010BD11204042FBE7C0467F
S1135370115B0000B4030020C9510000A95A0000C9
S113538000000020115A000010B50400074B5B799F
S1135390002B07D0054BD87801230A002100044CC8
S11353A0A04710BD11204042FBE7C046B4030020D3
S11353B0B555000010B5012810D0002806D00228E9
S11353C014D0032816D00D20404206E00B4B187968
S11353D00A0002210A4B9847002010BD074BD878D9
S11353E00A000221064B98470020F6E7034B196197
S11353F00020F2E7014B59610020EEE7B4030020DE
S11354006D2F0000014B58797047C046B40300204B
S113541010B5064B1C69002C07D000220121200086
S1135420636898472468002CF7D110BDD803002086
S113543070B506000D00074BDC68002C03D170BD6D
S11354402468002CFBD06368002BF9D029003000BD
S11354509847F5E7D8030020F8B507000E001500BB
S11354600D4B9C68002C04D1002011E02468002C12
S11354700DD06368002BF9D02A003100380098471A
S1135480002806D00A30F1D00120404200E000207C
S1135490F8BD0120FCE7C046D803002010B5064B38
S11354A05C68002C03D110BD2468002CFBD0636819
S11354B0002BF9D09847F7E7D803002010B5140063
S11354C0002903D0012929D0002010BD1378002B16
S11354D0FAD15378052B11D0092BF5D19278124BC0
S11354E0DA76A378E178090219434B1E9941033116
S11354F00D4B997601200D4B9847E5E790780C4BBE
S11355009847A378E178090219434B1E9941023167
S1135510054B99760120054B9847D5E701222100D8
S11355200020044B9847CFE7D803002031540000F3
S1135530F12C00005954000010B50D4B98470D4C48
S11355400223A3760023E376637700200A4B98476F
S1135550207F0A4B98470A4A00210020094CA047A3
S1135560094A02210020A0470020084B984710BD9B
S113557011540000D8030020652D0000512D0000B7
S1135580D15500006D2F0000BD540000912D000086
S113559010B5002802D0012804D010BD0020034B10
S11355A09847FAE7024B9847F7E7C04631540000A2
S11355B03955000010B584B001AC019102922072FB
S11355C063722000014B984704B010BDDD2D00002C
S11355D0F0B5C64600B584B005000C000022B54BFA
S11355E09847431C0DD0012301280BD022781F2398
S11355F0110099430BD0CBB2802B00D1F8E00023EB
S113560000E00023180004B004BC9046F0BD6378A9
S11356100B2B00D9E4E19B00A749CB589F460123FB
S1135620002200212800A54CA04743424341DBB29D
S1135630E8E7A278002A1AD0A14B1B6859681868B9
S1135640A04B9847002800D1D4E1C3781B0281788D
S1135650C91889B24118039104229B4B98470290C0
S1135660002806D0FF24964F974B98461AE0974B94
S113567098470123002200212800904CA047434270
S11356804341DBB2BEE7340000E034000298037803
S1135690C0180290039B019304221900C047029092
S11356A00028E6D08678A642F0D03C69002CEAD0E7
S11356B002AA00212000636898470028E5D02468E6
S11356C0002CF5D13400E1E71F231A400023022AFD
S11356D098D1A379E27912021A430023002A00D058
S11356E090E7207900217A4B98470123002200217A
S11356F02800724CA047012384E71F231A4000238B
S1135700022A00D07EE7A379E27912021A43002329
S1135710002A00D076E7207901216D4B98470123B8
S1135720002200212800654CA04701236AE7A378E2
S1135730E5782D021D432379647924021C43604AD1
S11357401368D27E596818685E4B9847002847D082
S11357500290C3781B028178C91889B24118039159
S11357600422594B984700283CD0574E08E0029831
S11357700378C018029004220399B047002833D05C
S11357808378A342F3D1C378AB42F0D102904C4B5F
S11357901E69002E2AD002AA01213000736898479E
S11357A0002804D03668002EF5D100232AE7736858
S11357B002AA0021300098470023002800D021E7E6
S11357C0002D05D03E490122A2404B7F13434B7765
S11357D00023002200210020384CA047012311E7B8
S11357E000230FE700230DE700230BE7002309E75D
S11357F06378062B33D0D9B2062922D9082B00D1DD
S1135800AFE00A2B00D0EDE02D4B5A7F217963796C
S11358101B020B431A41D30700D4CAE0284B1D696D
S11358200023002D00D1EDE62200022128006B6840
S11358309847002800DBC8E02D68002DF4D1002330
S1135840E0E6002B00D0CDE01F231A40D3B2012B99
S113585000D892E0022A00D19FE00023D2E6A37888
S1135860E27812021A43130A022B33D0032B56D0C8
S1135870012B01D00023C5E6A279E3791B0213436F
S11358801A1C122B00D9122294B20D4B1B685968B2
S1135890186801220C4B9847002800D1A4E000238B
S11358A0220001002800054CA04743424341DBB2DB
S11358B0A8E6C04659540000949C0000B555000069
S11358C0D80300209D5B0000215B00001154000000
S11358D0052F0000A379E67936021E43464B1F7F4D
S11358E01B680132D2B259681868444B9847011EAC
S11358F07CD0C3781B028478E418A4B20023A642A7
S113590005D9013F3E4073427341DBB226003200A9
S113591028003B4CA04743424341DBB272E6A379E3
S1135920E179090219430C00334B1E7F1B68D2B284
S113593059681868334B9847011E59D002780023E0
S1135940944206D9731E2340180043424341DBB2FC
S11359501400220028002A4CA04743424341DBB2F2
S113596050E6254BDA7E59690A70596900230122F1
S11359702800234CA047012344E6002302931E4C35
S1135980022202A96069204B984761690023022220
S113599028001B4CA047012334E6207902211B4B2D
S11359A09847002803DB012318400290E7E700230F
S11359B028E6114B002259690A7059690023013203
S11359C000200F4CA04701231CE60B4B5A691070B2
S11359D05969002301220020094CA047012311E644
S11359E000230FE600230DE600230BE6002309E65F
S11359F0002307E6002305E6D80300209D5B000092
S1135A00B5550000055C0000E1920000052F000080
S1135A1010B5012809D0002802D002280AD010BDF0
S1135A2007480430074B9847F9E705480830054B09
S1135A309847F4E702480C30024B9847EFE7C0461A
S1135A40D8030020E92F000070B50400431E9841DC
S1135A50C0B20C4A0C490D4B98470D4B984700288F
S1135A600EDB0C4D2022002128000B4B98476C6163
S1135A700A4900200A4CA0470A490120A0470020F7
S1135A8070BDC0465F030000C49C0000BD2F000031
S1135A90692C0000D8030020F39200009D540000FC
S1135AA0CD2C00009155000010B5010002481030C3
S1135AB0024B984710BDC046D8030020E92F0000D0
S1135AC010B50B4B9B7E002B0CD100280DD0084B3E
S1135AD018600268D2791A7701229A76054B9847A2
S1135AE0002010BD04204042FBE709204042F8E7B3
S1135AF0D8030020D92C000010B5014B984710BDE5
S1135B00E52C0000014B58697047C046D8030020BB
S1135B10024B987EC30600D510207047D80300209E
S1135B2010B5884211D20378012B10D944789442DD
S1135B300AD0C018814206D90378012B09D94478C8
S1135B409442F6D100E0002010BD0020FCE70020C4
S1135B50FAE70020F8E7884215D20378012B14D91C
S1135B604278042A13D0052A0CD0C018814208D9DF
S1135B700378012B0DD94278042A0CD0052AF4D1DC
S1135B8000E0002070470020FCE70020FAE7002036
S1135B90F8E70020F6E70020F4E7000070B50C00F9
S1135BA015000222164B984700281DD084421CD9A8
S1135BB00378012B1BD94378022B1AD14379AB42CA
S1135BC012D0C278120283789B189BB2C018844208
S1135BD009D90378012B0ED94378022B0DD14379CF
S1135BE0AB42EED100E0002070BD0020FCE70020B5
S1135BF0FAE70020F8E70020F6E70020F4E7C046C3
S1135C00215B0000F8B50D001700884212D2002471
S1135C100A4E03222900B04700280ED00378012B36
S1135C200AD9A74209D00134E4B2C0188542F0D899
S1135C30002002E0002000E00020F8BD215B00000D
S1135C400122024B1A7000207047C046F80300205E
S1135C500122024B5A7000207047C046F80300200E
S1135C6010B582B001AA1080C0B2C307DB0F0D4A81
S1135C7093708007C00FD0700B4B9847002803D057
S1135C80084B1B79002B02D0002002B010BD01226A
S1135C90044B1A7105490020054CA0470549012011
S1135CA0A047F1E7F803002005540000415C000020
S1135CB0B5530000515C000010B50A4C20000830B8
S1135CC0094B9847094B984709480A4B98470A4B90
S1135CD0984720004830094B984709490320094B4D
S1135CE0984710BDF8030020495A000045530000AE
S1135CF008000020C15A0000F95A0000A150000019
S1135D00615C0000B553000010B54A230B4AD35C14
S1135D10002B00D110BD0022094B5A7007484A23BA
S1135D20C15CC9B24C30074B9847054A5378002BE5
S1135D30FCD000214A23014AD154EBE77804002027
S1135D40F80300208953000010B5084A4A21535C27
S1135D50DBB25C1CE4B25454D3184C241855535C85
S1135D60402B00D010BD024B9847FBE7780400207D
S1135D70095D0000014B9878C0B27047F803002019
S1135D80F0B557464E46DE464546E0B58FB01D0099
S1135D9006000F00140000F09FF9C74B009001911A
S1135DA09A461B785BB2994601333ED022002B0001
S1135DB02000290003F046F88346002835D132003C
S1135DC03B003000390003F03DF800220390002826
S1135DD000D0B6E000233000390001F057F9002864
S1135DE02CD0002200232000290001F04FF9834623
S1135DF0002800D177E004AB98460123424604937F
S1135E00AE4B53604346039A1C615D611A629E6007
S1135E10DF604246002300249361D4614B46002B8B
S1135E204DD00023A64C00930194009801990FB023
S1135E303CBC90469946A246AB46F0BD00980199F9
S1135E4000F064FF8146002800D19BE0009801998E
S1135E500022002301F01AF90028E6D030003900AE
S1135E6000F054FF0028E0D02000290000F04EFF8D
S1135E700028DAD004AB98460423424604938F4B9F
S1135E80146155615360002300241362002393615D
S1135E90D46153461B789660D7605BB2022B04D062
S1135EA0404600F03DFF00280ED103F0EFF9222315
S1135EB0036009E04246002300249361D461404614
S1135EC000F02EFF002837D043461B6A002B04D075
S1135ED003F0DCF943461B6A03604346DC699B69B3
S1135EE000930194A1E72000290000F00FFF00288F
S1135EF09BD0002200232000290001F0CDF80028C7
S1135F0000D192E704AB98460123424604936B4BBD
S1135F10536043465A469E60DF601A621C615D61AD
S1135F2053461B785BB2002BC4D00020424665491F
S1135F309061D161022BC2D103F0A8F9212303603F
S1135F40C2E700232000290001F0A0F8002800D1B6
S1135F506BE704AB9846012342460493574B4146F2
S1135F60536043465A461A6200229E60DF601C61F9
S1135F705D61534B8A61CB61009201934B46022BC6
S1135F809DD152E73000390000F0C0FE002800D156
S1135F905CE72000290000F0B9FE002800D155E795
S1135FA0009801990B00020002F04CFF04AB9846E4
S1135FB0002861D1032342460493404B106253608E
S1135FC053461B789660D7605BB21461556199465D
S1135FD0002B2FD1E02241463B4B12068A61CB6154
S1135FE0300000220023390001F056F8002800D1C7
S1135FF056E70022354B2000290002F08DF90400F9
S11360000D0000F095FE02000B002000290001F0B5
S11360103DF8002805D1E0222D4B120641468A6145
S1136020CB6153461B785BB299464B46022B00D09A
S113603036E73AE700224146264B30008A61CB61BD
S113604000220023390001F027F80028EDD00022B7
S11360501E4B2000290002F05FF904000D0000F03F
S113606067FE02000B002000290001F00FF8002851
S1136070D7D10022134BD1E70123424604930F4B9F
S1136080536043464A461C615D611A629E60DF604C
S1136090002453461C57002C00D10BE70023002298
S11360A01900100001F004FD43469861D961022CE7
S11360B000D141E703E7C046B9000020DC9C0000A2
S11360C00000F03F0000F0FFFFFFEF470000E03F5B
S11360D0FFFFEFC70000F07FF0B557464E46454638
S11360E0DE461C001300E0B5650091B06D08009316
S11360F0019407000E0080468946A2462B4331D006
S1136100674B740064089C4227DC24D09D4224DC45
S1136110634B9D4200D181E000239B464B46002BFC
S113612000DA7FE0002A2CD15D4B9D4200D197E03C
S11361305C4B9D4266D08023DB059A4500D1B9E3D0
S1136140594B9A451DD14B46002B1ADB38003100C0
S113615000F0F8FC08E000280DD0544B9C46644441
S113616027430AD100204F4911B03CBC90469946C0
S1136170A246AB46F0BDA542CADD4D4800F0D2FDB3
S1136180F2E73800310000F0BDFD4346002B1DD17D
S1136190002C04D0434AB3009B08934216D15346C3
S11361A0002B00DAC5E34B46002BDDDA3F4B9C465F
S11361B05B4664441C4301D100F053FC5B46012B55
S11361C0D2D1802424060B191900CDE7F30F013B2B
S11361D098465B464246134357D0364B9D4277DD83
S11361E0354B9D4200DCB1E3344B9C4200DCA8E318
S11361F05346002B43DD324A324B1000190002F0A3
S11362008BF8B1E7534638003100002BACDA3A0082
S113621033000020234901F04BFCA5E7002A00D1FC
S11362207AE79AE7284B9D422CDC244B9D4200DC04
S113623078E726492B158C466344142B01DC00F0C7
S1136240F3FB3421CB1A0099D940080098408242CC
S113625000D067E70123194001335B1A9B4661E7CD
S1136260124BE3181F4300D17CE7144B9C4200DC23
S113627027E3009801995346002B00DB74E70020C4
S1136280002171E702239B464CE73A0033003800B3
S1136290310002F0C1FA02000B0001F009FC63E7CF
S11362A00000F07F0000F03F0000E03F000010C05D
S11362B0089C00000000E0410000F043FFFFEF3FB6
S11362C09C7500883CE4377EFFFF3F4301FCFFFFE1
S11362D0E94B00229C4206DC0022E84B02F01CF849
S11362E035220C005242E64D2315AC4663449946D0
S11362F02403E44DE44B240B914425439C4209DDE3
S1136300E24B9C4200DCB6E301239C46E04BE144B3
S11363109C466544002300240022089309940C93AE
S11363200D940024D74B06920793069A079B2900E5
S11363300A900B9102F070FA069A079B06000F0070
S11363400A980B9901F0A4F802000B000020CD4933
S113635001F0AEFB0A00010013000E910F9202003F
S11363603900300001F0D8FF0A00010080200491B8
S113637005921300002269108025000384460292CE
S113638003930022AD050D4365442B19029803992C
S113639014001D0001F0C0FF02000B0030003900A2
S11363A002F03AFA069A079B06000F002000290023
S11363B002F032FA02000B000A980B9902F02CFA50
S11363C0029A039B01F0A8FF02000B003000390081
S11363D002F022FA0E9A0F9B01F09EFF049D059E87
S11363E0069007912A0033002800310001F094FF41
S11363F006000F00A74AA84B01F08EFFA74AA84B3E
S113640001F046F832003B0001F086FFA54AA64B96
S113641001F03EF832003B0001F07EFFA34AA44B9A
S113642001F036F832003B0001F076FFA14AA24B9E
S113643001F02EF832003B0001F06EFF9F4AA04BA2
S113644001F026F8320004000D003B003000390052
S113645001F062FF02000B002000290001F05CFF44
S1136460029E039F04000D000498059932003B002E
S113647001F00EF8069A079B01F04EFF22002B0054
S113648001F006F832000A900B913B00300039000D
S11364900296039701F040FF00228A4B04000D008E
S11364A000F0F6FF0A9A0B9B00F0F2FF00260F00A3
S11364B032000B000298039901F02EFF0022029093
S11364C00391804B3000390002F0A6F922002B0022
S11364D002F0A2F902000B000A980B9902F09CF951
S11364E0049A059B01F018FF320004000D00069881
S11364F007993B0001F010FF02000B002000290067
S113650000F0C6FF04000D0002000B00029803997E
S113651000F0BEFF0026E0226B4B120630000F0095
S113652001F0FAFE029A039B0490059130003900B1
S113653002F072F902000B002000290002F06CF94D
S1136540624A614B01F0E8FE614A04000D00614BB0
S11365503000390001F0E0FE02000B0020002900A9
S113656000F096FF0C9A0D9B00F092FF060048463F
S11365700F0002F087FC04000D0004980599320016
S11365803B0000F085FF089A099B00F081FF220080
S11365902B0000F07DFF002022002B0002900391CD
S11365A002F03AF9089A099B02F036F9049A059B1D
S11365B002F032F902000B003000390002F02CF92D
S11365C0049005915B464246013B134300D1ABE185
S11365D000232C4C069307940098019900260B0085
S11365E032000F0002F018F9029A039B01F094FEA6
S11365F0009A019B04000D000498059901F08CFE9B
S113660002000B002000290000F042FF04000D00EE
S11366100298039932003B000094019501F07CFE3E
S113662002000B0006000F002000290000F030FFDC
S1136630294B04000D0002008B46994200DC4FE117
S1136640264BCB18034300D0E2E100980199244A79
S1136650244B00F01DFF3200029003913B00200008
S1136660290002F0D9F802000B000298039900F007
S113667027FDAA4638E0C046FFFF0F000000404354
S113668001FCFFFF0000F03F8E98030079B60B0079
S11366900000F0FFEF4E454A287ECA3F65DBC993F0
S11366A04A86CD3F01411DA96074D13F4D268F51CB
S11366B05555D53FFFAB6FDBB66DDB3F033333334B
S11366C03333E33F0000084009C7EE3FFD033ADCE3
S11366D0F5015B14E02F3EBEFFFF8F40000070BF4A
S11366E0FE822B654715973C002800D090E1EC4AC8
S11366F0534694468022520311001B1563441941EA
S11367000B009046E74A5B4494465C00640DE64DFA
S1136710644425411A00AA43110042461B031B0B83
S113672013431422141B234199465B460020002B7B
S113673000DAB0E102000B003000390002F06CF81E
S11367400B00020006000F000098019900F0A0FE63
S11367504B461B050D00984600240022D34B200015
S1136760290001F0D9FD3200029003913B00200082
S1136770290002F051F802000B000098019902F080
S11367804BF8CB4ACB4B01F0C7FDCB4A06000F00B8
S1136790CA4B2000290001F0BFFD02000B003000AD
S11367A0390000F075FE04000D0002000B00029891
S11367B0039900F06DFE029A039B06000F0002F09D
S11367C02BF802000B002000290002F025F832000B
S11367D0009001913B003000390001F09DFD040060
S11367E00D00B74AB74B01F097FDB74AB74B02F01B
S11367F013F822002B0001F08FFDB54AB54B00F0D1
S113680047FE22002B0001F087FDB34AB34B02F090
S113681003F822002B0001F07FFDB14AB14B00F0D8
S113682037FE22002B0001F077FD02000B00300040
S1136830390001F0F1FF04000D0002000B003000EC
S1136840390001F069FD8023029003910022DB05E9
S11368502000290001F0E0FF02000B0002980399D8
S113686001F026F9009A019B04000D003000390064
S113687001F052FD009A019B00F00AFE02000B0099
S11368802000290001F0C8FF32003B0001F0C4FFE2
S113689002000B000020944901F0BEFF43465B1840
S11368A01A15002A00DC49E11900069A079B01F039
S11368B033FD59E43A0033003800310001F02CFD77
S11368C052E45346002B00DBD9E4009C019D802256
S11368D012062B009446634420001900FFF744FC81
S11368E04B005B089A46814B9A4500DCB1E0804B33
S11368F05B441A430CD132003B0001F08DFF0200CF
S11369000B000098019900F0D1FB002800D1EEE6BD
S113691006980799774A784B01F0FEFC754A764B46
S113692001F0FAFCFFF720FC0023744C0693079453
S113693052E602000B0000206B4901F0B9F8FFF7A2
S113694032FC5346002B00DB99E454E46C4B9C422C
S1136950F7DD654B9C4200DD4AE40022624B01F006
S11369605BFFC022674BD20504000D0001F0D4FC8C
S1136970654A06000F00654B2000290001F0CCFC9D
S1136980002202900391624B2000290001F0C4FC14
S113699002000B005F48604901F03EFF22002B001B
S11369A001F0BAFC02000B0000205C4901F034FF46
S11369B02200049005912B002000290001F0ACFC7A
S11369C002000B000498059901F0A6FC544A4D4BB3
S11369D001F0A2FC02000B000298039901F01CFFD5
S11369E002000B0004000D003000390000F050FDDF
S11369F0002032003B000290039101F00DFF0200E1
S1136A000B002000290001F007FF04900591D9E54F
S1136A10444A454B0698079901F07EFC414A424B93
S1136A2001F07AFCFFF7A0FB002A01D0FFF7A9FBD5
S1136A301432D31A2A001A41110099408D4201D010
S1136A40FFF776FB01231A40DB189B1A9B46FFF7DE
S1136A506FFB0022314B904691469A4500DC7BE661
S1136A6045E602000B0001F0D7FE02000B0001F026
S1136A701FF8FFF779FB80232C4CDB05089309945E
S1136A802B4B2C4C00220C930D9480242A4BE402B3
S1136A900692079349E44B465B4299464AE6C04650
S1136AA002FCFFFF01FCFFFFFFFF0F00432EE63F48
S1136AB0EF39FAFE422EE63F396CA80C615C20BE29
S1136AC0D0A4BE726937663EF16BD2C541BDBB3EF0
S1136AD02CDE25AF6A56113F93BDBE166CC1663FCE
S1136AE03E5555555555C53F0000F03FFFCB9040EE
S1136AF000346F3F59F3F8C21F6EA5010000F0BFC8
S1136B00FEFFEF3F4715F73F44DF5DF80BAE543E01
S1136B100000D03F555555555555D53F0000E03F31
S1136B20FE822B659C7500883CE4377E03B8E23F07
S1136B3006D0CF43EBFD4C3E0000F83F4A4600F040
S1136B4099F9B2E66C4BF0B50A0046460D00D646FC
S1136B504F461900C0B5040006002940994200D1EF
S1136B60A7E0002D00DC81E02F1500D18EE0634BFF
S1136B7012039C468023120B5B0367441A43FB07F2
S1136B8068D47B109C46E30F9B189B188022162127
S1136B900026002564009203A818984202DC851898
S1136BA01B1AB618E00F5B0001391B186400520869
S1136BB00029F1D10022924690468022202012061C
S1136BC009E0AB4238D0E10FC9180138CB18640092
S1136BD05208002818D041465118AB42F1DD8F18F5
S1136BE0B846A946002930DB5B1B8C42AD416D429F
S1136BF05B1B641AE10FC918013892444D46CB1847
S1136C00640052080028E6D1234328D153465B0888
S1136C103B49721088464244F10702D58021090697
S1136C200B4361461E000F05BD18300029001CBC33
S1136C3090469946A246F0BDA142C4D88F18B846E2
S1136C40002942DB99460023D3E7002F2FDB6F1C7A
S1136C50B946C9E7E10F52008A18640091E7534628
S1136C60013335D0534601335B08D1E76B005B0831
S1136C700343DAD00027002D32D1E20A153F640520
S1136C80002AFAD080235B031A4224D180200023F7
S1136C90400300E00B005200591C0242FAD02020AD
S1136CA0401AFF1A2300C3408C401A435FE7A946E9
S1136CB09AE72B000200290001F02EFB32002B0082
S1136CC000F0E6FB06000D00AFE7002FBFDAB9E7DE
S1136CD0013600239CE70123002120205B42E0E7EA
S1136CE02B000200290001F097FD02000B0000F0C8
S1136CF0DFFE06000D0098E70000F07F01FCFFFFB7
S1136D000000E03F49004B0819007047034B48005E
S1136D109C4640086044C00F7047C0460000108085
S1136D2000207047002001497047C0460000F87FEA
S1136D30F0B5C64600B5CB0F98464A4C4B005B0DE8
S1136D401E1982B007000A00132E35DC002E57DB13
S1136D50454B040033411F000F4007430D00002F33
S1136D6024D05B081C000C4020430027002807D0D7
S1136D70132E00D173E08022D202324199430A4398
S1136D804346DE00394B11009E193468756838009B
S1136D9022002B0000F07CFB0090019100980199E7
S1136DA022002B0001F038FD04000D002000290012
S1136DB002B004BC9046F0BD332E0CDD80230400E9
S1136DC0DB000D009E42F1D102000B0000F060FBDD
S1136DD004000D00EAE7264C0D00A4460124634498
S1136DE06442DC40A446614604000142DED0490806
S1136DF00142C5D08027FF051F4188430743BFE7F1
S1136E004B005B08034304000D00002BCED00B03A2
S1136E101B0B03431A005B42134380221B0B120318
S1136E2013404A0C5204134319004346DA000F4B33
S1136E309B181C685D6822002B0000F029FB009061
S1136E4001910098019922002B0001F0E5FC4246D3
S1136E504B005B08D607334304001D00A6E78027D8
S1136E603F0688E701FCFFFFFFFF0F00E09C0000E6
S1136E70EDFBFFFF4B0070B55B0D14000A00002B07
S1136E801AD14B005B08034315D00022224B01F0BA
S1136E9043FA224B0A009C4222DB4B005B0D363B3B
S1136EA01F4DE318AB4220DC002B0DDD1D4C1B05F0
S1136EB022401A43110070BD1B4DAB42F0D10200B9
S1136EC00B0000F0E5FAF6E71D00353518DA174B2C
S1136ED002009C420ADC0B001548164900F032F807
S1136EE0134A144B01F018FAE5E702000B001248AC
S1136EF0124900F027F8104A104B01F00DFADAE7B6
S1136F00084C363322401B051343190000220C4B56
S1136F1001F002FACFE7C04600005043B03CFFFF47
S1136F20FE070000FFFF0F80FF07000050C30000B2
S1136F3059F3F8C21F6EA5019C7500883CE4377EA6
S1136F400000903C30B54A00DB0FDB0752081A43BF
S1136F50110030BD002243088B4274D303098B42D5
S1136F605FD3030A8B4244D3030B8B4228D3030C15
S1136F708B420DD3FF22090212BA030C8B4202D3B7
S1136F801212090265D0030B8B4219D300E0090ADF
S1136F90C30B8B4201D3CB03C01A5241830B8B42E8
S1136FA001D38B03C01A5241430B8B4201D34B03D1
S1136FB0C01A5241030B8B4201D30B03C01A524136
S1136FC0C30A8B4201D3CB02C01A5241830A8B42BB
S1136FD001D38B02C01A5241430A8B4201D34B02A4
S1136FE0C01A5241030A8B4201D30B02C01A524108
S1136FF0CDD2C3098B4201D3CB01C01A52418309BC
S11370008B4201D38B01C01A524143098B4201D3F5
S11370104B01C01A524103098B4201D30B01C01A20
S11370205241C3088B4201D3CB00C01A524183089A
S11370308B4201D38B00C01A524143088B4201D3C7
S11370404B00C01A5241411A00D201465241104627
S11370507047FFE701B5002000F006F802BDC04606
S11370600029F7D076E770477047C0468446101C65
S113707062468C46191C634600E0C0461FB501F009
S1137080E9F8002801D40021C8421FBD10B501F061
S113709043F84042013010BD10B501F0DBF8002880
S11370A001DB002010BD012010BDC04610B501F069
S11370B0D1F8002801DD002010BD012010BDC0461C
S11370C010B501F063F8002801DC002010BD012098
S11370D010BDC04610B501F059F8002801DA0020AF
S11370E010BD012010BDC0469E2110B5C905041C69
S11370F001F0FCFF002803D1201C00F0A9F910BD09
S11371009E21201CC90500F007F800F0A1F9802396
S11371101B069C466044F2E7F0B54F46D646464609
S11371204400C0B5C20F47024802400A844666467E
S11371307B0A4800C90F9A46240E1500DB00000E96
S11371408946F600FF2800D18FE001214F464F40C9
S11371503900914266D0221A002A00DC9DE0002802
S11371603DD1002E00D18BE0511E002900D0B5E0A6
S113717001249B1B5A0144D59B019F09380001F04F
S1137180BFFF05388740844200DD96E0041B3A00C7
S113719020200134E240041BA7403B005F1EBB419A
S11371A0002413435A0704D00F221A40042A00D0A3
S11371B004335A0127D50134FF2C00D179E0012290
S11371C09B015B0AE4B22A405B02E405580AD20739
S11371D0204310431CBC90469946A246F0BDFF2CA8
S11371E0E0D08021C9040E431B2A7BDC310020201F
S11371F0D140821A9640721E96410E439B1B5A013F
S1137200BAD45A07D0D10122DF082A40FF2C33D147
S1137210002F00D1A8E08023DB033B435B025B0A21
S1137220FF24D1E7211A00294CDD00282AD0FF2CA5
S1137230B8D08020C00406431B2900DDAFE0300035
S11372402027C840791A8E40711E8E4106439B192F
S11372505901D6D50134FF2C00D185E001227A49A9
S11372601A405B080B4013439CE7002E00D070E7E4
S11372706BE73B1EC5D100227B025B0AE4B2A3E7A5
S113728014008FE7002E4DD0481E002857D19B19BB
S113729001245A01B5D50224E0E7002A25D1621C55
S11372A0D2B2012A72DD9F1B7A0135D5F71A0D007F
S11372B064E7012200232A4086E73B00634A241A3C
S11372C013406FE700296CD1611CC8B201284EDD60
S11372D0FF2949D09B195B080C0063E7FF2A41D0C2
S11372E00A0081E701269B1B89E7002C1CD0FF289C
S11372F021D08024E404524223431B2A00DD96E07B
S11373001C002025D440AA1A93405A1E93412343BB
S1137310F31A04000D002DE7002F00D02EE7002201
S11373200024A9E70C003DE7002B58D0D243002AE3
S1137330EED0FF28E1D13300FF240D0032E7FF290E
S113734010D0010078E7002B6ED0FF24002E00D16E
S113735028E780225146D203114203D061461142EC
S113736000D13300FF241DE7FF2400232CE7002C69
S1137370E9D1002B63D0002E00D113E79B195A01E9
S113738000D43EE7314A0C0013400BE7002C1ED119
S1137390002B2FD1002E4FD033000D0002E7012621
S11373A055E7002C1FD1002B43D0C94300290BD033
S11373B0FF2839D01B2944DC1C002027CC40791A33
S11373C08B40591E8B4123439B19040040E7002B3B
S11373D01AD1002E24D180270022FF031BE733009B
S11373E004000D00DEE6FF281ED08024E404494298
S11373F02343DFE7002E00D1D4E69F1B7A0100D49B
S113740037E7F31A0D00CDE6FF24002E00D1C9E6BC
S113741080225046D2031042A4D060461042A1D12B
S113742033000D00FF24BDE63300FF24BAE6012338
S11374306EE733000400B5E6002700221CE73300A2
S1137440B0E60123C0E7C046FFFFFF7DFFFFFFFB5F
S113745041024300C20F490A1B0E00207E2B0DDDA2
S11374609D2B0CDC802000040143952B0ADC962024
S1137470C31AD9404842002A00D108007047034B80
S1137480D018FBE7963B9940F4E7C046FFFFFF7F27
S1137490F8B54546DE4657464E460C03E0B54E0069
S11374A0C90F88460D00610A440F0C43C700190335
S11374B05800DB0F9B464B0A510F0B43760D400DD2
S11374C01900D200D84500D1AEE0351A002D00DCF9
S11374D0F6E000280FD1134300D1DBE06B1E002B34
S11374E000D037E1BA1A9742BF41641A7F42E41BC5
S11374F00126170024E0C64B9E424DD080231B0476
S11375001943382D00DD07E11F2D00DD38E120206F
S1137510431B9A460B005046834099461300484645
S1137520EB401843030050468240501E8241E9401C
S11375301A43BA1A611A9742A441170064420C1BF9
S1137540230262D56402650A002D00D1DFE0280021
S113755001F0D6FD0300083B1F2B00DDD2E0202202
S11375603C00D21A9D40D4409F4025439E4200DDFA
S1137570C4E09E1B731C1F2B00DDF1E020223800A9
S11375802900D21AD840914097402C000143781E1C
S11375908741DC4000260F437B0709D00F233B4083
S11375A0042B05D03B1DBB42BF417F42E4191F00A1
S11375B023022CD5964B01369E4200D19AE04546D3
S11375C0944BFF081C406007760564020743240BB4
S11375D0760D00212403230B0C0D8F4A24051C4334
S11375E01440330523435B00ED075B082B4338004D
S11375F019003CBC90469946A246AB46F8BD644689
S1137600044300D111E2040067467B07C6D1454616
S11376106007FF080743E4087D4B9E4230D02403F3
S11376207605240B760DD4E7331A9A46002B78DDC1
S1137630002831D076488642AED080200004014331
S11376405346382B00DCE9E00A43511E8A410021ED
S1137650D219BA42BF4109197C4217000C192302FE
S1137660D3D56B4B01369E4200D13AE10120694BE0
S11376701C407B0807401F43E007074364088BE76F
S113768023003B4300D1CBE18022120314432403A3
S1137690240B9EE72E007FE70800104300D1B4E0DE
S11376A0581E002800D0DEE0BA18BA429B41641884
S11376B05B42E418170001262302A6D50226D5E76B
S11376C0002D6ED1701C4005400D012800DCF9E04E
S11376D0B81A844687428041E51A40422D1A28028E
S11376E000D489E0D71BBA4292411C1B5242A51A0E
S11376F0D84629E74546002400276AE7454CF61A90
S11377002C4049E73D002838854000272EE7380003
S113771001F0F6FC20301DE70A43511E8A41002186
S113772007E7002B00D0F3E0701C43055B0D012B31
S113773000DCADE0364B984200D1D1E0BA18BA4231
S1137740BF4164187F42E419E707520817436408ED
S1137750060021E72E48854200D193E01D00D0E6C3
S113776029001F3EF140202B00D18DE04022D31A86
S11377709D402F437D1EAF4100240F43002644E764
S11377802B000800203BD8400300202D00D17DE0D1
S11377904020451BA9400A43511E8A4100211A4337
S11377A0C7E6002E50D01A4EB04257D080266B4206
S11377B09946360434434B46382B00DDD6E01F2B64
S11377C000DD35E12026F51A2600AE40B2463E0023
S11377D0DE40AC46350056462E436546AF407D1E1E
S11377E0AF41DC403743D71BBA4292410C1B524293
S11377F0A41A0600D846A3E6644667462C4300D084
S1137800A2E600250026002706E71E00C4E6C046BF
S1137810FF070000FFFF7FFFFFFF0F801F2B63DCCC
S11378202020C31A080098409C4683465346100003
S1137830D84003005846184363469A40531E9A4161
S113784053460243D94003E726003E4306D0EB43A8
S11378509946002BC7D0944EB042ACD10C0017000F
S11378600600D84698E6904B9A450BD08246E7E648
S1137870002800D09EE01800104300D1E9E01C006D
S11378801700D846884E87E6002572E7002182E774
S113789023003B43002E00D0ABE0002B00D1E7E0F7
S11378A00B00134300D177E6BA18BA42BF416418FB
S11378B07F42E419230200D4F2E07C4B17001C4001
S11378C0060069E620003843002ED1D100285BD1A0
S11378D01C00144300D1A8E01C001700D8465BE646
S11378E006000024002797E650460B002038C340CA
S11378F099465346202B00D195E0402350461B1A4D
S113790099400A43511E8A414B4600211A439FE67F
S1137910002E30D126003E4367D0DB439A46002B2D
S11379201CD0614EB04260D05346382B00DD96E047
S11379301F2B00DD9FE02026F31A26009E409C4664
S1137940B34653463E00DE4033005E461E43634664
S11379509F407B1E9F415346DC403743BF189742EC
S1137960924164185242A418060078E627437C1E0C
S1137970A741002437E74C4EB04236D080265B4204
S113798036049A463443CFE71800104300D103E687
S1137990B81A84466745AD41E01A6D42401B0502A2
S11379A000D42CE6D71BBA4292411C1B5242A41AA3
S11379B0D846F1E51800104300D163E7F8086707DB
S11379C007438020E4080003044208D0DD08054290
S11379D005D1D208590711430F002C00D8467B0F5C
S11379E0E4001C43FF00304ED6E50C0017000600EF
S11379F0D2E5002B38D00B00134300D142E7F8083E
S1137A00670707438020E40800030442E7D0CB085B
S1137A100342E4D1D208490711430F001C00DEE7FA
S1137A2000270024D5E500216BE700250027F3E5B6
S1137A304E462500203EF5404B462E00202B2DD0EF
S1137A404025ED1AAC4027437C1EA7410024374350
S1137A50C9E6802400252403134E0027DCE52743D0
S1137A607C1EA741002479E70C0017000E4E93E515
S1137A700C00170090E556462300203EF34099463B
S1137A805346202B0ED0402356469B1B9C40274335
S1137A907C1EA7414B4600241F435FE70024D2E726
S1137AA01700B2E50024F2E7FF070000FFFF7FFFA5
S1137AB0F0B557464546DE464E46E0B54C000E034B
S1137AC087B0834692461D008046360B640DCF0F67
S1137AD0002C4FD06F4B9C4235D08023420F1B04A7
S1137AE0F600134333439946C30098466A4B002675
S1137AF09C460023644403932B031B0B9B466B009F
S1137B00ED0F50465B0D01955ED0624A934253D00F
S1137B105A46D1008022400F120402430A4393467E
S1137B205246D1005C4A94460022634438006840BF
S1137B3084460290E41A16430F2E00D9B4E0574B42
S1137B40B6009B599F460300334399466CD10023EA
S1137B509846023308260393CEE7CB464146039A60
S1137B600197022A65D1019B4A4C9C4600230022BE
S1137B7098466BE00300334399464ED0002E00D163
S1137B80BCE1300001F0BCFA03000B3B1C2B00DD10
S1137B90ACE11D22D31A5A460100DA4008398E405E
S1137BA01300334399465B468B40984600233C4C74
S1137BB00026241A03939FE751465A46114329D1BC
S1137BC0002293460232B1E7594601431ED05B4678
S1137BD0002B00D19EE1584601F092FA03000B3BC2
S1137BE01C2B00DD8FE102005946083A91408B4678
S1137BF01D21CB1A5146D9400B0059460B4351461F
S1137C009B469140264B00221B1A8FE7002301223A
S1137C109B468BE75146032288E7002398460133AD
S1137C2004260024039367E70323B14603930C2639
S1137C3062E7032A00D15CE2019B012A00D0E4E15F
S1137C4013409C460023002400229846002112037E
S1137C50130B0A0D12051A432305124C4046224009
S1137C60134362465B00D2075B081343190007B055
S1137C703CBC90469946A246AB46F0BD0023802208
S1137C809C4612039846034CE0E70023014C002273
S1137C909846DBE7FF07000001FCFFFFF09C0000B3
S1137CA00DFCFFFFFFFF0F80D94500D939E100D15A
S1137CB034E1002346464D469A46013C5B460A0E93
S1137CC01B021A430B02170C039313041B0C3900F9
S1137CD0280090460193FFF73DF90200019B83467B
S1137CE05A43280039009146FFF7BAF9350C0904C4
